:100000000C945D000C9485000C9485000C94850084
:100010000C9485000C9485000C9485000C9485004C
:100020000C9485000C9485000C9485000C9485003C
:100030000C9485000C9485000C9485000C9485002C
:100040000C94CD020C9485000C9485000C948500D2
:100050000C9485000C9485000C9485000C9485000C
:100060000C9485000C94850000000008000201003B
:100070000003040700000000000000000000000072
:10008000250028002B0000000000240027002A0083
:10009000040404040404040402020202020203032E
:1000A0000303030301020408102040800102040836
:1000B0001020010204081020AA0311241FBECFEF54
:1000C000D8E0DEBFCDBF11E0A0E0B1E0E4EEF7E0A4
:1000D00002C005900D92AC30B107D9F721E0ACE039
:1000E000B1E001C01D92AF32B207E1F710E0CDE5FB
:1000F000D0E004C02197FE010E94EA03CC35D1076D
:10010000C9F70E9417030C94F0030C94000090E0D0
:10011000FC01EC55FF4F249180579F4FFC018491C7
:10012000882399F090E0880F991FFC01EA57FF4F50
:10013000A591B491FC01E458FF4F859194918FB73C
:10014000F894EC91E22BEC938FBF0895AF92BF929D
:10015000CF92DF92EF92FF920F931F93CF93DF9393
:100160006C017B018B01040F151FEB015E01AE18C2
:10017000BF08C017D10759F06991D601ED91FC91E4
:100180000190F081E02DC6010995892B79F7C50111
:10019000DF91CF911F910F91FF90EF90DF90CF9063
:1001A000BF90AF90089590E0FC01E859FF4F249173
:1001B000FC01EC55FF4F3491FC01E057FF4FE491F7
:1001C000EE23C9F0222339F0233001F1A8F42130C5
:1001D00019F1223029F1F0E0EE0FFF1FE458FF4F34
:1001E000A591B4918FB7F894EC91611126C0309528
:1001F0003E233C938FBF08952730A9F02830C9F0E3
:10020000243049F7809180008F7D03C08091800069
:100210008F7780938000DFCF84B58F7784BDDBCF6D
:1002200084B58F7DFBCF8091B0008F778093B00035
:10023000D2CF8091B0008F7DF9CF3E2BDACF0895D9
:1002400090E080E008958F929F92AF92BF920F93BB
:100250001F93CF93DF93CDB7DEB7A1970FB6F89476
:10026000DEBF0FBECDBF19A2423008F44AE08E01B6
:100270000F5D1F4F842E912CB12CA12CA501940150
:100280000E94C803E62FB901CA01EA3044F5E05DD7
:10029000D801EE938D01232B242B252B79F790E0A9
:1002A00080E0109769F0FD0101900020E9F7319797
:1002B000AF014A1B5B0BBD0187E191E00E94A600E4
:1002C000A1960FB6F894DEBF0FBECDBFDF91CF91E0
:1002D0001F910F91BF90AF909F908F900895E95C10
:1002E000D7CFCF93DF93EC0160E08E810E94D300E3
:1002F00061E08E810E94D30060E08E810E94D30075
:100300008BE891E00197F1F7DF91CF910895CF92BB
:10031000DF92EF92FF920F931F93CF93DF936C01C5
:100320007C0187E0E80EF11CD0E0C0E0062F10E071
:10033000B8010C2E02C0759567950A94E2F76170BA
:10034000F70181917F010E94D3002196C430D1052D
:1003500079F7C601DF91CF911F910F91FF90EF9038
:10036000DF90CF900C947101CF92DF92EF92FF92C9
:100370000F931F93CF93DF93EC01F62E642F8C81A4
:100380000E94D3008D818F3F19F060E00E94D3005E
:100390000F2D10E08F8584FF25C06E0187E0C80E09
:1003A000D11CF12CE12CB8010E2C02C0759567957B
:1003B0000A94E2F76170F60181916F010E94D30007
:1003C000FFEFEF1AFF0A88E0E816F10461F7CE01AB
:1003D000DF91CF911F910F91FF90EF90DF90CF9021
:1003E0000C947101B80184E0759567958A95E1F7E1
:1003F000CE010E9487016F2DCE01DF91CF911F9119
:100400000F91FF90EF90DF90CF900C94870140E028
:10041000682F87E191E00C94B401CF93DF93823091
:1004200029F49091260198609093260180932A01E7
:1004300010922B0180E480932C0180E180932D01A8
:1004400080E580932E0180911B010E94870080919E
:100450001C018F3F11F00E94870080911D010E94B6
:100460008700C7E1D1E09E012751314080912601EC
:1004700084FD0AC084E090E02196281739073CF4F7
:100480008E810E948700EFCF88E090E0F5CF8BE36C
:100490009DE00197F1F760E080911B010E94D3007D
:1004A00060E080911D010E94D30080911C018F3F6C
:1004B00019F060E00E94D3008091260184FD39C0CC
:1004C00063E087E191E00E948701CBE4D6E4CE01AE
:1004D0000197F1F763E087E191E00E94870121979E
:1004E000F1F763E087E191E00E94870183E592E004
:1004F0000197F1F762E087E191E00E948701809126
:10050000260180620E94070284E0809327018CE02C
:100510000E94070281E00E9407028BE39FE101979E
:10052000F1F782E08093280186E0DF91CF910C946F
:10053000070280620E9407028BE496E40197F1F7BC
:100540008091260180620E94070283E592E0019774
:10055000F1F78091260180620E940702D0CF90912E
:100560002A01691710F06FEF690FE62FF0E0E95EDE
:10057000FE4F9489890F80680C94070241E00E9425
:10058000B40181E090E0089541E0682F87E191E0B7
:100590000E94B40181E090E008951F920F920FB67F
:1005A0000F9211242F933F938F939F93AF93BF93F9
:1005B0008091110190911201A0911301B091140149
:1005C0003091100123E0230F2D3758F50196A11D1E
:1005D000B11D209310018093110190931201A093FB
:1005E0001301B093140180910C0190910D01A09121
:1005F0000E01B0910F010196A11DB11D80930C0158
:1006000090930D01A0930E01B0930F01BF91AF9194
:100610009F918F913F912F910F900FBE0F901F9040
:10062000189526E8230F0296A11DB11DD2CF78940C
:1006300084B5826084BD84B5816084BD85B58260E7
:1006400085BD85B5816085BD80916E008160809398
:100650006E00109281008091810082608093810001
:100660008091810081608093810080918000816011
:10067000809380008091B10084608093B10080916C
:10068000B00081608093B00080917A008460809394
:100690007A0080917A00826080937A0080917A005B
:1006A000816080937A0080917A00806880937A00DC
:1006B0001092C10082E00E940D02C0E0D0E060E034
:1006C00080E00E94AF0288E40E94C40260E088E0FB
:1006D0000E94AF028DE40E94C40260E08FE00E949D
:1006E000AF0283E50E94C402109216011092150118
:1006F00000911501109116010D3311052CF561E0E3
:100700008FE00E94AF026801012E000CEE08FF0886
:100710004AE0C701B60117FF0BC08DE20E94C40278
:1007200066277727CB016C197D098E099F094AE05E
:100730000E942301809115019091160101969093DA
:10074000160180931501D4CF209709F4B8CF0E94E9
:100750000000B5CFE7E1F1E01382128284E091E07E
:100760009183808383E084838FEF858382E0868317
:100770008BE087838AE0808789E0818788E08287B1
:100780001386148615861686178681E00C940D0252
:10079000A1E21A2EAA1BBB1BFD010DC0AA1FBB1F85
:1007A000EE1FFF1FA217B307E407F50720F0A21BF7
:1007B000B30BE40BF50B661F771F881F991F1A9464
:1007C00069F760957095809590959B01AC01BD018E
:1007D000CF010895EE0FFF1F0590F491E02D0994CD
:0407E000F894FFCFBB
:0C07E40000000000BE02A60020011F0162
:00000001FF
